{
  "contractName": "BCBC",
  "abi": [
    {
      "inputs": [
        {
          "internalType": "string",
          "name": "_challengeWords",
          "type": "string"
        }
      ],
      "stateMutability": "nonpayable",
      "type": "constructor"
    },
    {
      "anonymous": false,
      "inputs": [
        {
          "indexed": false,
          "internalType": "uint256",
          "name": "id",
          "type": "uint256"
        },
        {
          "indexed": false,
          "internalType": "uint256",
          "name": "tipAmount",
          "type": "uint256"
        },
        {
          "indexed": false,
          "internalType": "string",
          "name": "hash",
          "type": "string"
        },
        {
          "indexed": false,
          "internalType": "string",
          "name": "title",
          "type": "string"
        },
        {
          "indexed": false,
          "internalType": "string",
          "name": "description",
          "type": "string"
        },
        {
          "indexed": false,
          "internalType": "address payable",
          "name": "creator",
          "type": "address"
        },
        {
          "indexed": false,
          "internalType": "uint8",
          "name": "validateCounter",
          "type": "uint8"
        },
        {
          "indexed": false,
          "internalType": "uint8",
          "name": "killCounter",
          "type": "uint8"
        }
      ],
      "name": "WorkoutCreated",
      "type": "event"
    },
    {
      "anonymous": false,
      "inputs": [
        {
          "indexed": false,
          "internalType": "uint256",
          "name": "id",
          "type": "uint256"
        },
        {
          "indexed": false,
          "internalType": "uint256",
          "name": "tipAmount",
          "type": "uint256"
        },
        {
          "indexed": false,
          "internalType": "string",
          "name": "hash",
          "type": "string"
        },
        {
          "indexed": false,
          "internalType": "string",
          "name": "title",
          "type": "string"
        },
        {
          "indexed": false,
          "internalType": "string",
          "name": "description",
          "type": "string"
        },
        {
          "indexed": false,
          "internalType": "address payable",
          "name": "creator",
          "type": "address"
        },
        {
          "indexed": false,
          "internalType": "uint8",
          "name": "validateCounter",
          "type": "uint8"
        },
        {
          "indexed": false,
          "internalType": "uint8",
          "name": "killCounter",
          "type": "uint8"
        }
      ],
      "name": "WorkoutTipped",
      "type": "event"
    },
    {
      "inputs": [],
      "name": "challengeWords",
      "outputs": [
        {
          "internalType": "string",
          "name": "",
          "type": "string"
        }
      ],
      "stateMutability": "view",
      "type": "function"
    },
    {
      "inputs": [],
      "name": "coach",
      "outputs": [
        {
          "internalType": "address",
          "name": "",
          "type": "address"
        }
      ],
      "stateMutability": "view",
      "type": "function"
    },
    {
      "inputs": [
        {
          "internalType": "uint256",
          "name": "",
          "type": "uint256"
        },
        {
          "internalType": "address",
          "name": "",
          "type": "address"
        }
      ],
      "name": "idAddressVoted",
      "outputs": [
        {
          "internalType": "bool",
          "name": "",
          "type": "bool"
        }
      ],
      "stateMutability": "view",
      "type": "function"
    },
    {
      "inputs": [],
      "name": "workoutCount",
      "outputs": [
        {
          "internalType": "uint256",
          "name": "",
          "type": "uint256"
        }
      ],
      "stateMutability": "view",
      "type": "function"
    },
    {
      "inputs": [
        {
          "internalType": "uint256",
          "name": "",
          "type": "uint256"
        }
      ],
      "name": "workouts",
      "outputs": [
        {
          "internalType": "uint256",
          "name": "id",
          "type": "uint256"
        },
        {
          "internalType": "uint256",
          "name": "tipAmount",
          "type": "uint256"
        },
        {
          "internalType": "string",
          "name": "hash",
          "type": "string"
        },
        {
          "internalType": "string",
          "name": "title",
          "type": "string"
        },
        {
          "internalType": "string",
          "name": "description",
          "type": "string"
        },
        {
          "internalType": "address payable",
          "name": "creator",
          "type": "address"
        },
        {
          "internalType": "uint8",
          "name": "validateCounter",
          "type": "uint8"
        },
        {
          "internalType": "uint8",
          "name": "killCounter",
          "type": "uint8"
        }
      ],
      "stateMutability": "view",
      "type": "function"
    },
    {
      "inputs": [
        {
          "internalType": "string",
          "name": "_videoHash",
          "type": "string"
        },
        {
          "internalType": "string",
          "name": "_title",
          "type": "string"
        },
        {
          "internalType": "string",
          "name": "_description",
          "type": "string"
        }
      ],
      "name": "uploadWorkout",
      "outputs": [],
      "stateMutability": "payable",
      "type": "function"
    },
    {
      "inputs": [
        {
          "internalType": "uint256",
          "name": "_id",
          "type": "uint256"
        }
      ],
      "name": "tipWorkoutCreator",
      "outputs": [],
      "stateMutability": "payable",
      "type": "function"
    },
    {
      "inputs": [
        {
          "internalType": "uint256",
          "name": "_id",
          "type": "uint256"
        }
      ],
      "name": "validateWorkout",
      "outputs": [],
      "stateMutability": "nonpayable",
      "type": "function"
    },
    {
      "inputs": [
        {
          "internalType": "uint256",
          "name": "_id",
          "type": "uint256"
        }
      ],
      "name": "killWorkout",
      "outputs": [],
      "stateMutability": "nonpayable",
      "type": "function"
    }
  ],
  "bytecode": "0x608060405260006002553480156200001657600080fd5b506040516200199f3803806200199f833981810160405260208110156200003c57600080fd5b81019080805160405193929190846401000000008211156200005d57600080fd5b838201915060208201858111156200007457600080fd5b82518660018202830111640100000000821117156200009257600080fd5b8083526020830192505050908051906020019080838360005b83811015620000c8578082015181840152602081019050620000ab565b50505050905090810190601f168015620000f65780820380516001836020036101000a031916815260200191505b5060405250505033600160006101000a81548173ffffffffffffffffffffffffffffffffffffffff021916908373ffffffffffffffffffffffffffffffffffffffff1602179055508060009080519060200190620001569291906200015e565b50506200020d565b828054600181600116156101000203166002900490600052602060002090601f016020900481019282601f10620001a157805160ff1916838001178555620001d2565b82800160010185558215620001d2579182015b82811115620001d1578251825591602001919060010190620001b4565b5b509050620001e19190620001e5565b5090565b6200020a91905b8082111562000206576000816000905550600101620001ec565b5090565b90565b611782806200021d6000396000f3fe6080604052600436106100865760003560e01c806349869eff1161005957806349869eff1461035d578063cd56ec3114610398578063d3e0de111461057f578063e044dedd146105ba578063e4ac1c651461062d57610086565b80630e1666c71461008b57806316e1f7201461011b57806327c711811461030457806335422e0f14610332575b600080fd5b34801561009757600080fd5b506100a0610684565b6040518080602001828103825283818151815260200191508051906020019080838360005b838110156100e05780820151818401526020810190506100c5565b50505050905090810190601f16801561010d5780820380516001836020036101000a031916815260200191505b509250505060405180910390f35b6103026004803603606081101561013157600080fd5b810190808035906020019064010000000081111561014e57600080fd5b82018360208201111561016057600080fd5b8035906020019184600183028401116401000000008311171561018257600080fd5b91908080601f016020809104026020016040519081016040528093929190818152602001838380828437600081840152601f19601f820116905080830192505050505050509192919290803590602001906401000000008111156101e557600080fd5b8201836020820111156101f757600080fd5b8035906020019184600183028401116401000000008311171561021957600080fd5b91908080601f016020809104026020016040519081016040528093929190818152602001838380828437600081840152601f19601f8201169050808301925050505050505091929192908035906020019064010000000081111561027c57600080fd5b82018360208201111561028e57600080fd5b803590602001918460018302840111640100000000831117156102b057600080fd5b91908080601f016020809104026020016040519081016040528093929190818152602001838380828437600081840152601f19601f820116905080830192505050505050509192919290505050610722565b005b6103306004803603602081101561031a57600080fd5b8101908080359060200190929190505050610ad8565b005b34801561033e57600080fd5b50610347611104565b6040518082815260200191505060405180910390f35b34801561036957600080fd5b506103966004803603602081101561038057600080fd5b810190808035906020019092919050505061110a565b005b3480156103a457600080fd5b506103d1600480360360208110156103bb57600080fd5b810190808035906020019092919050505061122a565b604051808981526020018881526020018060200180602001806020018773ffffffffffffffffffffffffffffffffffffffff1673ffffffffffffffffffffffffffffffffffffffff1681526020018660ff1660ff1681526020018560ff1660ff16815260200184810384528a818151815260200191508051906020019080838360005b8381101561046f578082015181840152602081019050610454565b50505050905090810190601f16801561049c5780820380516001836020036101000a031916815260200191505b50848103835289818151815260200191508051906020019080838360005b838110156104d55780820151818401526020810190506104ba565b50505050905090810190601f1680156105025780820380516001836020036101000a031916815260200191505b50848103825288818151815260200191508051906020019080838360005b8381101561053b578082015181840152602081019050610520565b50505050905090810190601f1680156105685780820380516001836020036101000a031916815260200191505b509b50505050505050505050505060405180910390f35b34801561058b57600080fd5b506105b8600480360360208110156105a257600080fd5b8101908080359060200190929190505050611474565b005b3480156105c657600080fd5b50610613600480360360408110156105dd57600080fd5b8101908080359060200190929190803573ffffffffffffffffffffffffffffffffffffffff1690602001909291905050506115f1565b604051808215151515815260200191505060405180910390f35b34801561063957600080fd5b50610642611620565b604051808273ffffffffffffffffffffffffffffffffffffffff1673ffffffffffffffffffffffffffffffffffffffff16815260200191505060405180910390f35b60008054600181600116156101000203166002900480601f01602080910402602001604051908101604052809291908181526020018280546001816001161561010002031660029004801561071a5780601f106106ef5761010080835404028352916020019161071a565b820191906000526020600020905b8154815290600101906020018083116106fd57829003601f168201915b505050505081565b600083511161073057600080fd5b600082511161073e57600080fd5b600081511161074c57600080fd5b600073ffffffffffffffffffffffffffffffffffffffff163373ffffffffffffffffffffffffffffffffffffffff16141561078657600080fd5b6002600081548092919060010191905055506040518061010001604052806002548152602001600081526020018481526020018381526020018281526020013373ffffffffffffffffffffffffffffffffffffffff168152602001600060ff168152602001600060ff1681525060036000600254815260200190815260200160002060008201518160000155602082015181600101556040820151816002019080519060200190610838929190611646565b506060820151816003019080519060200190610855929190611646565b506080820151816004019080519060200190610872929190611646565b5060a08201518160050160006101000a81548173ffffffffffffffffffffffffffffffffffffffff021916908373ffffffffffffffffffffffffffffffffffffffff16021790555060c08201518160050160146101000a81548160ff021916908360ff16021790555060e08201518160050160156101000a81548160ff021916908360ff1602179055509050507f0d41a2bbdbbde0da5701063664cd1ffd4a94b38f693783acf35f9a6d13a5e763600254600085858533600080604051808981526020018881526020018060200180602001806020018773ffffffffffffffffffffffffffffffffffffffff1673ffffffffffffffffffffffffffffffffffffffff1681526020018660ff1681526020018560ff16815260200184810384528a818151815260200191508051906020019080838360005b838110156109c45780820151818401526020810190506109a9565b50505050905090810190601f1680156109f15780820380516001836020036101000a031916815260200191505b50848103835289818151815260200191508051906020019080838360005b83811015610a2a578082015181840152602081019050610a0f565b50505050905090810190601f168015610a575780820380516001836020036101000a031916815260200191505b50848103825288818151815260200191508051906020019080838360005b83811015610a90578082015181840152602081019050610a75565b50505050905090810190601f168015610abd5780820380516001836020036101000a031916815260200191505b509b50505050505050505050505060405180910390a1505050565b600081118015610aea57506002548111155b610af357600080fd5b610afb6116c6565b60036000838152602001908152602001600020604051806101000160405290816000820154815260200160018201548152602001600282018054600181600116156101000203166002900480601f016020809104026020016040519081016040528092919081815260200182805460018160011615610100020316600290048015610bc75780601f10610b9c57610100808354040283529160200191610bc7565b820191906000526020600020905b815481529060010190602001808311610baa57829003601f168201915b50505050508152602001600382018054600181600116156101000203166002900480601f016020809104026020016040519081016040528092919081815260200182805460018160011615610100020316600290048015610c695780601f10610c3e57610100808354040283529160200191610c69565b820191906000526020600020905b815481529060010190602001808311610c4c57829003601f168201915b50505050508152602001600482018054600181600116156101000203166002900480601f016020809104026020016040519081016040528092919081815260200182805460018160011615610100020316600290048015610d0b5780601f10610ce057610100808354040283529160200191610d0b565b820191906000526020600020905b815481529060010190602001808311610cee57829003601f168201915b505050505081526020016005820160009054906101000a900473ffffffffffffffffffffffffffffffffffffffff1673ffffffffffffffffffffffffffffffffffffffff1673ffffffffffffffffffffffffffffffffffffffff1681526020016005820160149054906101000a900460ff1660ff1660ff1681526020016005820160159054906101000a900460ff1660ff1660ff1681525050905060008160a0015190508073ffffffffffffffffffffffffffffffffffffffff166108fc349081150290604051600060405180830381858888f19350505050158015610df5573d6000803e3d6000fd5b5034826020015101826020018181525050816003600085815260200190815260200160002060008201518160000155602082015181600101556040820151816002019080519060200190610e4a929190611646565b506060820151816003019080519060200190610e67929190611646565b506080820151816004019080519060200190610e84929190611646565b5060a08201518160050160006101000a81548173ffffffffffffffffffffffffffffffffffffffff021916908373ffffffffffffffffffffffffffffffffffffffff16021790555060c08201518160050160146101000a81548160ff021916908360ff16021790555060e08201518160050160156101000a81548160ff021916908360ff1602179055509050507f4a72e3c899e79f083d071db74d3ce94d41d197663e35007212e9a0a7673928ec838360200151846040015185606001518660800151868860c001518960e00151604051808981526020018881526020018060200180602001806020018773ffffffffffffffffffffffffffffffffffffffff1673ffffffffffffffffffffffffffffffffffffffff1681526020018660ff1660ff1681526020018560ff1660ff16815260200184810384528a818151815260200191508051906020019080838360005b83811015610ff0578082015181840152602081019050610fd5565b50505050905090810190601f16801561101d5780820380516001836020036101000a031916815260200191505b50848103835289818151815260200191508051906020019080838360005b8381101561105657808201518184015260208101905061103b565b50505050905090810190601f1680156110835780820380516001836020036101000a031916815260200191505b50848103825288818151815260200191508051906020019080838360005b838110156110bc5780820151818401526020810190506110a1565b50505050905090810190601f1680156110e95780820380516001836020036101000a031916815260200191505b509b50505050505050505050505060405180910390a1505050565b60025481565b60006003600083815260200190815260200160002090506004600083815260200190815260200160002060003373ffffffffffffffffffffffffffffffffffffffff1673ffffffffffffffffffffffffffffffffffffffff16815260200190815260200160002060009054906101000a900460ff161561118957600080fd5b60016004600084815260200190815260200160002060003373ffffffffffffffffffffffffffffffffffffffff1673ffffffffffffffffffffffffffffffffffffffff16815260200190815260200160002060006101000a81548160ff02191690831515021790555080600501601581819054906101000a900460ff168092919060010191906101000a81548160ff021916908360ff160217905550505050565b6003602052806000526040600020600091509050806000015490806001015490806002018054600181600116156101000203166002900480601f0160208091040260200160405190810160405280929190818152602001828054600181600116156101000203166002900480156112e25780601f106112b7576101008083540402835291602001916112e2565b820191906000526020600020905b8154815290600101906020018083116112c557829003601f168201915b505050505090806003018054600181600116156101000203166002900480601f0160208091040260200160405190810160405280929190818152602001828054600181600116156101000203166002900480156113805780601f1061135557610100808354040283529160200191611380565b820191906000526020600020905b81548152906001019060200180831161136357829003601f168201915b505050505090806004018054600181600116156101000203166002900480601f01602080910402602001604051908101604052809291908181526020018280546001816001161561010002031660029004801561141e5780601f106113f35761010080835404028352916020019161141e565b820191906000526020600020905b81548152906001019060200180831161140157829003601f168201915b5050505050908060050160009054906101000a900473ffffffffffffffffffffffffffffffffffffffff16908060050160149054906101000a900460ff16908060050160159054906101000a900460ff16905088565b60006003600083815260200190815260200160002090503373ffffffffffffffffffffffffffffffffffffffff168160050160009054906101000a900473ffffffffffffffffffffffffffffffffffffffff1673ffffffffffffffffffffffffffffffffffffffff1614156114e857600080fd5b6004600083815260200190815260200160002060003373ffffffffffffffffffffffffffffffffffffffff1673ffffffffffffffffffffffffffffffffffffffff16815260200190815260200160002060009054906101000a900460ff161561155057600080fd5b60016004600084815260200190815260200160002060003373ffffffffffffffffffffffffffffffffffffffff1673ffffffffffffffffffffffffffffffffffffffff16815260200190815260200160002060006101000a81548160ff02191690831515021790555080600501601481819054906101000a900460ff168092919060010191906101000a81548160ff021916908360ff160217905550505050565b60046020528160005260406000206020528060005260406000206000915091509054906101000a900460ff1681565b600160009054906101000a900473ffffffffffffffffffffffffffffffffffffffff1681565b828054600181600116156101000203166002900490600052602060002090601f016020900481019282601f1061168757805160ff19168380011785556116b5565b828001600101855582156116b5579182015b828111156116b4578251825591602001919060010190611699565b5b5090506116c29190611727565b5090565b6040518061010001604052806000815260200160008152602001606081526020016060815260200160608152602001600073ffffffffffffffffffffffffffffffffffffffff168152602001600060ff168152602001600060ff1681525090565b61174991905b8082111561174557600081600090555060010161172d565b5090565b9056fea2646970667358221220a42a37d982e7b6dff9195bd46e24ac67c79219146e8cb6bb8136c5519b850b2c64736f6c63430006060033",
  "immutableReferences": {},
  "source": "//trying 6.6\r\npragma solidity ^0.6.6;\r\n\r\n//contract begins with allocating memory and variables\r\ncontract BCBC {\r\n    //keep track of all created workouts\r\n    //strings in an array, filled in when constructing contract\r\n    string public challengeWords;\r\n    //constructor function will assign me(msg.sender) to this var\r\n    address public coach;\r\n    \r\n    //store videos\r\n    //map the index (videocount) of the workout struct\r\n    //keep track of how many videos (for looping?)\r\n    uint public workoutCount = 0; //used as index for workouts\r\n    //keep track of the _____ as a map of Workout structs\r\n    mapping(uint => Workout) public workouts;\r\n    \r\n    //struct of video Data\r\n    struct Workout {\r\n        uint id;  //index based on current videoCount\r\n        uint tipAmount; //keep track of total money tipped to creator for this workout\r\n        string hash; //stringy hash\r\n        string title; //of course we need a non-empty title\r\n        string description; //why not?\r\n        address payable creator;\r\n        //group types together to save on gas\r\n        uint8 validateCounter; //how many checks\r\n        uint8 killCounter; //how many [X] not valid!\r\n    }\r\n    \r\n    //counter variable, shoutout to Marek from ETHWorks for the brilliant help\r\n    //this means: take the index/id (workoutCount) as key and the value is another mapping with the\r\n    //address of the voter and a true false value (see validateWorkout()) line ~161\r\n    //change this only when validateWorkout or killWorkout is called\r\n    mapping(uint => mapping(address => bool)) public idAddressVoted;\r\n    //honestly not sure if the event needs to have all the exact parts of a Workout...\r\n    //notice: the () not {} and , not ;     \r\n    event WorkoutCreated(\r\n        uint id,  //index based on current videoCount\r\n        uint tipAmount, //keep track of total money tipped to creator for this workout\r\n        string hash, //stringy hash\r\n        string title, //of course we need a non-empty title\r\n        string description, //why not?\r\n        address payable creator, //, dont forget \r\n        //group types together to save on gas\r\n        uint8 validateCounter, //how many checks\r\n        uint8 killCounter //, //how many [X] not valid!\r\n        // //to prevent double voting, we need to keep track of who has validated\r\n        // mapping(address => bool) addressVoted //mapping to let us check/switch on vote\r\n    );\r\n    \r\n    //this is also an emitable event, for when its tipped\r\n    event WorkoutTipped(\r\n        uint id,  \r\n        uint tipAmount,\r\n        string hash, \r\n        string title, \r\n        string description, \r\n        address payable creator, //,\r\n        uint8 validateCounter,\r\n        uint8 killCounter //, \r\n    );\r\n    \r\n    //day2, realized i forgot a constructor function to create the challenge words string\r\n    constructor (string memory _challengeWords) public {\r\n        coach = msg.sender;\r\n        challengeWords = _challengeWords;\r\n        //the creator of the contract is the coach and the coach creates the challenge words\r\n    }\r\n    \r\n    ///@dev possibly unnecessary?\r\n    //mapping of killed workouts (MVP lets say recieving 3 X votes)\r\n    // mapping(uint => bool) workoutIsKilled; //bool defaults to false, on 3 votes change this to true\r\n    //write a modifier function for onlyAlive?  maybe later...probably not neccessary...\r\n\r\n    //must pass in _videoHash from IPFS and the workout title, description\r\n    function uploadWorkout(string memory _videoHash, string memory _title, string memory _description) public payable {\r\n        // Make sure the video hash exists\r\n        //\"validate the hash\"\r\n        require(bytes(_videoHash).length > 0);\r\n        // Make sure workout title exists\r\n        require(bytes(_title).length > 0);\r\n        // Make sure workout description exists\r\n        require(bytes(_description).length > 0);\r\n        // Make sure uploader address exists\r\n        //double check this one in my mocha testing\r\n        require(msg.sender!=address(0));\r\n  \r\n        //after requirements do the \"upload\" thing\r\n        //the first mapping of workouts is one Workout datastructure\r\n        // Increment workout id/index\r\n        workoutCount ++;\r\n\r\n        // Add workoutVideo hash to the contract\r\n        //to create a new Workout, be 100% to pass in the parameters in the exactly right order\r\n        //? -- see line ~21\r\n        workouts[workoutCount] = Workout(workoutCount, 0, _videoHash, _title, _description, msg.sender, 0, 0);//, 0, 0)\r\n        // Trigger an event (emitting with exactly the same values as above)\r\n        emit WorkoutCreated(workoutCount, 0, _videoHash, _title, _description, msg.sender, 0, 0);//, 0, 0);\r\n    }\r\n\r\n    //tip images of valid workout id\r\n    //this function will a .send() transaction with ETH value\r\n    function tipWorkoutCreator(uint _id) public payable {\r\n        //make sure id is valid (it cant be 0 or more than the total workouts)\r\n        require(_id > 0 && _id <= workoutCount);\r\n        //fetch & read workout, its in memory locally\r\n        Workout memory _workout = workouts[_id];\r\n        //find the author/creator and set it \r\n        address payable _creator = _workout.creator;\r\n        //transfer to the owner of the workouot!\r\n        // _author.transfer(1 wei);\r\n        //don't hard code it lets just send in how much they sent\r\n        _creator.transfer(msg.value);\r\n\r\n        // increase that workouts' tip amount (OTC!)\r\n        _workout.tipAmount = _workout.tipAmount + (msg.value);\r\n        //update the workout (back in the mapping)\r\n        workouts[_id] = _workout;\r\n        //emit the event \r\n        // Trigger an event (emitting with exactly the same values as above)\r\n        emit WorkoutTipped(\r\n            _id, \r\n            _workout.tipAmount, \r\n            _workout.hash, \r\n            _workout.title, \r\n            _workout.description, \r\n            _creator,\r\n            _workout.validateCounter, \r\n            _workout.killCounter \r\n            );\r\n    }\r\n    \r\n    function validateWorkout(uint _id) public {\r\n    ///@learn \"storage\" we want to manipulate the copy of struct thats in storage\r\n        Workout storage workout = workouts[_id];\r\n     // /@notice we are making sure the caller of func is not the creator\r\n        // /@dev requirements can appear wherever you want in a function, isn't that nice? feel free to blockroad\r\n        require(workout.creator != msg.sender);\r\n        // /@param: at the index in the requests struct, check if addressVoted for the message.sender is \r\n        // /@dev !TRUE =not true\r\n        \r\n        //***ERROR*** cannot save a mapping inside a struct?\r\n        //correct, though the explaination is outside the scope of the comments section\r\n        // https://www.reddit.com/r/ethdev/comments/lr0f26/struct_containing_a_nested_mapping_cannot_be/\r\n        //https://medium.com/coinmonks/solidity-tutorial-all-about-mappings-29a12269ee14\r\n        // require(!workout.addressVoted[msg.sender]);\r\n        //if i'm right, this requires FALSE for the mapping at _id[address of the msg.sender]\r\n        require(!idAddressVoted[_id][msg.sender]);\r\n        //***ERROR*** cannot save a mapping inside a struct?\r\n        // /@notice preventing double voting\r\n        // workout.addressVoted[msg.sender] = true;\r\n        idAddressVoted[_id][msg.sender] = true;\r\n        \r\n        // /@notice increments the counter for this workout, towards eventual threshold?\r\n        workout.validateCounter++;\r\n    }\r\n    \r\n    function killWorkout(uint _id) public {\r\n        Workout storage workout = workouts[_id];\r\n        //allow creator to kill their workout\r\n        // require(workout.creator != msg.sender);\r\n        \r\n        require(!idAddressVoted[_id][msg.sender]);\r\n        \r\n        idAddressVoted[_id][msg.sender] = true;\r\n        \r\n        // /@notice increments the counter for this workout, towards eventual threshold?\r\n        workout.killCounter++;\r\n    }\r\n}",
  "sourcePath": "C:/Users/tippi/Dropbox/My PC (LAPTOP-7Q52KVFF)/Documents/GitHub/0xHack/dappu/decentragram/src/contracts/BCBC.sol",
  "compiler": {
    "name": "solc",
    "version": "0.6.6+commit.6c089d02.Emscripten.clang"
  },
  "schemaVersion": "3.3.4",
  "updatedAt": "2021-05-31T03:29:23.655Z",
  "devdoc": {
    "methods": {
      "uploadWorkout(string,string,string)": {
        "details": "possibly unnecessary?"
      }
    }
  },
  "userdoc": {
    "methods": {}
  }
}