{
  "contractName": "NFBody",
  "abi": [
    {
      "inputs": [],
      "stateMutability": "nonpayable",
      "type": "constructor"
    },
    {
      "inputs": [
        {
          "internalType": "uint256",
          "name": "",
          "type": "uint256"
        }
      ],
      "name": "bodies",
      "outputs": [
        {
          "internalType": "uint256",
          "name": "strength",
          "type": "uint256"
        },
        {
          "internalType": "uint256",
          "name": "dexterity",
          "type": "uint256"
        },
        {
          "internalType": "uint256",
          "name": "constitution",
          "type": "uint256"
        },
        {
          "internalType": "uint256",
          "name": "intelligence",
          "type": "uint256"
        },
        {
          "internalType": "uint256",
          "name": "wisdom",
          "type": "uint256"
        },
        {
          "internalType": "uint256",
          "name": "charisma",
          "type": "uint256"
        },
        {
          "internalType": "uint256",
          "name": "experience",
          "type": "uint256"
        },
        {
          "internalType": "string",
          "name": "name",
          "type": "string"
        }
      ],
      "stateMutability": "view",
      "type": "function"
    },
    {
      "inputs": [],
      "name": "randomResult",
      "outputs": [
        {
          "internalType": "uint256",
          "name": "",
          "type": "uint256"
        }
      ],
      "stateMutability": "view",
      "type": "function"
    },
    {
      "inputs": [
        {
          "internalType": "bytes32",
          "name": "requestId",
          "type": "bytes32"
        },
        {
          "internalType": "uint256",
          "name": "randomness",
          "type": "uint256"
        }
      ],
      "name": "rawFulfillRandomness",
      "outputs": [],
      "stateMutability": "nonpayable",
      "type": "function"
    },
    {
      "inputs": [
        {
          "internalType": "uint256",
          "name": "userProvidedSeed",
          "type": "uint256"
        },
        {
          "internalType": "string",
          "name": "title",
          "type": "string"
        }
      ],
      "name": "getRandomNumber",
      "outputs": [
        {
          "internalType": "bytes32",
          "name": "requestId",
          "type": "bytes32"
        }
      ],
      "stateMutability": "nonpayable",
      "type": "function"
    },
    {
      "inputs": [
        {
          "internalType": "uint256",
          "name": "tokenId",
          "type": "uint256"
        }
      ],
      "name": "getCharacterStats",
      "outputs": [
        {
          "internalType": "uint256",
          "name": "",
          "type": "uint256"
        },
        {
          "internalType": "uint256",
          "name": "",
          "type": "uint256"
        },
        {
          "internalType": "uint256",
          "name": "",
          "type": "uint256"
        },
        {
          "internalType": "uint256",
          "name": "",
          "type": "uint256"
        },
        {
          "internalType": "uint256",
          "name": "",
          "type": "uint256"
        },
        {
          "internalType": "uint256",
          "name": "",
          "type": "uint256"
        },
        {
          "internalType": "uint256",
          "name": "",
          "type": "uint256"
        }
      ],
      "stateMutability": "view",
      "type": "function"
    },
    {
      "inputs": [],
      "name": "withdrawLink",
      "outputs": [],
      "stateMutability": "nonpayable",
      "type": "function"
    }
  ],
  "bytecode": "0x60c060405234801561001057600080fd5b50738c7382f9d8f56b33781fe506e897a4f1e2d1725573326c977e6efc84e512bb9c30f76e30c160ed06fb8173ffffffffffffffffffffffffffffffffffffffff1660a08173ffffffffffffffffffffffffffffffffffffffff1660601b815250508073ffffffffffffffffffffffffffffffffffffffff1660808173ffffffffffffffffffffffffffffffffffffffff1660601b8152505050507f6e75b569a01ef56d18cab6a8e71e6600d6ce853834d4a5748b720d06f878b3a460001b60018190555067016345785d8a000060028190555060805160601c60a05160601c610fca610121600039806107035280610bbe5250806104d6528061051352806107d75280610b825250610fca6000f3fe608060405234801561001057600080fd5b50600436106100625760003560e01c806342619f661461006757806344cee73c146100855780636fe0c0461461015d5780638dc654a2146101c957806394985ddd146101d3578063bfb6f26e1461020b575b600080fd5b61006f6102e4565b6040518082815260200191505060405180910390f35b6100b16004803603602081101561009b57600080fd5b81019080803590602001909291905050506102ea565b6040518089815260200188815260200187815260200186815260200185815260200184815260200183815260200180602001828103825283818151815260200191508051906020019080838360005b8381101561011b578082015181840152602081019050610100565b50505050905090810190601f1680156101485780820380516001836020036101000a031916815260200191505b50995050505050505050505060405180910390f35b6101896004803603602081101561017357600080fd5b81019080803590602001909291905050506103d7565b6040518088815260200187815260200186815260200185815260200184815260200183815260200182815260200197505050505050505060405180910390f35b6101d16104d4565b005b610209600480360360408110156101e957600080fd5b810190808035906020019092919080359060200190929190505050610701565b005b6102ce6004803603604081101561022157600080fd5b81019080803590602001909291908035906020019064010000000081111561024857600080fd5b82018360208201111561025a57600080fd5b8035906020019184600183028401116401000000008311171561027c57600080fd5b91908080601f016020809104026020016040519081016040528093929190818152602001838380828437600081840152601f19601f8201169050808301925050505050505091929192905050506107d0565b6040518082815260200191505060405180910390f35b60035481565b600481815481106102f757fe5b9060005260206000209060080201600091509050806000015490806001015490806002015490806003015490806004015490806005015490806006015490806007018054600181600116156101000203166002900480601f0160208091040260200160405190810160405280929190818152602001828054600181600116156101000203166002900480156103cd5780601f106103a2576101008083540402835291602001916103cd565b820191906000526020600020905b8154815290600101906020018083116103b057829003601f168201915b5050505050905088565b6000806000806000806000600488815481106103ef57fe5b9060005260206000209060080201600001546004898154811061040e57fe5b90600052602060002090600802016001015460048a8154811061042d57fe5b90600052602060002090600802016002015460048b8154811061044c57fe5b90600052602060002090600802016003015460048c8154811061046b57fe5b90600052602060002090600802016004015460048d8154811061048a57fe5b90600052602060002090600802016005015460048e815481106104a957fe5b9060005260206000209060080201600601549650965096509650965096509650919395979092949650565b7f000000000000000000000000000000000000000000000000000000000000000073ffffffffffffffffffffffffffffffffffffffff1663a9059cbb337f000000000000000000000000000000000000000000000000000000000000000073ffffffffffffffffffffffffffffffffffffffff166370a08231306040518263ffffffff1660e01b8152600401808273ffffffffffffffffffffffffffffffffffffffff1673ffffffffffffffffffffffffffffffffffffffff16815260200191505060206040518083038186803b1580156105ae57600080fd5b505afa1580156105c2573d6000803e3d6000fd5b505050506040513d60208110156105d857600080fd5b81019080805190602001909291905050506040518363ffffffff1660e01b8152600401808373ffffffffffffffffffffffffffffffffffffffff1673ffffffffffffffffffffffffffffffffffffffff16815260200182815260200192505050602060405180830381600087803b15801561065257600080fd5b505af1158015610666573d6000803e3d6000fd5b505050506040513d602081101561067c57600080fd5b81019080805190602001909291905050506106ff576040517f08c379a00000000000000000000000000000000000000000000000000000000081526004018080602001828103825260128152602001807f556e61626c6520746f207472616e73666572000000000000000000000000000081525060200191505060405180910390fd5b565b7f000000000000000000000000000000000000000000000000000000000000000073ffffffffffffffffffffffffffffffffffffffff163373ffffffffffffffffffffffffffffffffffffffff16146107c2576040517f08c379a000000000000000000000000000000000000000000000000000000000815260040180806020018281038252601f8152602001807f4f6e6c7920565246436f6f7264696e61746f722063616e2066756c66696c6c0081525060200191505060405180910390fd5b6107cc8282610943565b5050565b60006002547f000000000000000000000000000000000000000000000000000000000000000073ffffffffffffffffffffffffffffffffffffffff166370a08231306040518263ffffffff1660e01b8152600401808273ffffffffffffffffffffffffffffffffffffffff1673ffffffffffffffffffffffffffffffffffffffff16815260200191505060206040518083038186803b15801561087257600080fd5b505afa158015610886573d6000803e3d6000fd5b505050506040513d602081101561089c57600080fd5b81019080805190602001909291905050501015610904576040517f08c379a000000000000000000000000000000000000000000000000000000000815260040180806020018281038252602b815260200180610f6a602b913960400191505060405180910390fd5b8160056000838152602001908152602001600020908051906020019061092b929190610ec4565b5061093b60015460025485610b7e565b905092915050565b806003819055506000600480549050905060006064838161096057fe5b06905060006064612710858161097257fe5b068161097a57fe5b0490506000612710620f4240868161098e57fe5b068161099657fe5b0490506000620f42406305f5e10087816109ac57fe5b06816109b457fe5b04905060006305f5e1006402540be40088816109cc57fe5b06816109d457fe5b04905060006402540be40064e8d4a5100089816109ed57fe5b06816109f557fe5b04905060008090506004604051806101000160405280898152602001888152602001878152602001868152602001858152602001848152602001838152602001600560008e81526020019081526020016000208054600181600116156101000203166002900480601f016020809104026020016040519081016040528092919081815260200182805460018160011615610100020316600290048015610adc5780601f10610ab157610100808354040283529160200191610adc565b820191906000526020600020905b815481529060010190602001808311610abf57829003601f168201915b50505050508152509080600181540180825580915050600190039060005260206000209060080201600090919091909150600082015181600001556020820151816001015560408201518160020155606082015181600301556080820151816004015560a0820151816005015560c0820151816006015560e0820151816007019080519060200190610b6f929190610ec4565b50505050505050505050505050565b60007f000000000000000000000000000000000000000000000000000000000000000073ffffffffffffffffffffffffffffffffffffffff16634000aea07f000000000000000000000000000000000000000000000000000000000000000085878660405160200180838152602001828152602001925050506040516020818303038152906040526040518463ffffffff1660e01b8152600401808473ffffffffffffffffffffffffffffffffffffffff1673ffffffffffffffffffffffffffffffffffffffff16815260200183815260200180602001828103825283818151815260200191508051906020019080838360005b83811015610c8d578082015181840152602081019050610c72565b50505050905090810190601f168015610cba5780820380516001836020036101000a031916815260200191505b50945050505050602060405180830381600087803b158015610cdb57600080fd5b505af1158015610cef573d6000803e3d6000fd5b505050506040513d6020811015610d0557600080fd5b8101908080519060200190929190505050506000610d378584306000808a815260200190815260200160002054610d89565b9050610d5f600160008088815260200190815260200160002054610e0390919063ffffffff16565b60008087815260200190815260200160002081905550610d7f8582610e8b565b9150509392505050565b600084848484604051602001808581526020018481526020018373ffffffffffffffffffffffffffffffffffffffff1673ffffffffffffffffffffffffffffffffffffffff1681526020018281526020019450505050506040516020818303038152906040528051906020012060001c9050949350505050565b600080828401905083811015610e81576040517f08c379a000000000000000000000000000000000000000000000000000000000815260040180806020018281038252601b8152602001807f536166654d6174683a206164646974696f6e206f766572666c6f77000000000081525060200191505060405180910390fd5b8091505092915050565b60008282604051602001808381526020018281526020019250505060405160208183030381529060405280519060200120905092915050565b828054600181600116156101000203166002900490600052602060002090601f016020900481019282601f10610f0557805160ff1916838001178555610f33565b82800160010185558215610f33579182015b82811115610f32578251825591602001919060010190610f17565b5b509050610f409190610f44565b5090565b610f6691905b80821115610f62576000816000905550600101610f4a565b5090565b9056fe4e6f7420656e6f756768204c494e4b202d2066696c6c20636f6e7472616374207769746820666175636574a2646970667358221220fcc037a543ac77468bf3e4e4d5ac714df25ad188ad7dd53dd522e074d94cf7e364736f6c63430006060033",
  "immutableReferences": {
    "336": [
      {
        "length": 32,
        "start": 1238
      },
      {
        "length": 32,
        "start": 1299
      },
      {
        "length": 32,
        "start": 2007
      },
      {
        "length": 32,
        "start": 2946
      }
    ],
    "338": [
      {
        "length": 32,
        "start": 1795
      },
      {
        "length": 32,
        "start": 3006
      }
    ]
  },
  "source": "// This example code is designed to quickly deploy an example contract using Remix.\r\n\r\npragma solidity 0.6.6;\r\n\r\nimport \"@chainlink/contracts/src/v0.6/VRFConsumerBase.sol\";\r\n\r\ncontract NFBody is VRFConsumerBase {\r\n    \r\n    bytes32 internal keyHash;\r\n    uint256 internal fee;\r\n    \r\n    uint256 public randomResult;\r\n    \r\n    struct Body {\r\n        uint256 strength;\r\n        uint256 dexterity;\r\n        uint256 constitution;\r\n        uint256 intelligence;\r\n        uint256 wisdom;\r\n        uint256 charisma;\r\n        uint256 experience;\r\n        string name;\r\n    }\r\n\r\n    Body[] public bodies;\r\n    mapping(bytes32 => string) requestToBodyTitle;\r\n    /**\r\n     * Constructor inherits VRFConsumerBase\r\n     *\r\n     * Network: Polygon Mumbai\r\n     * Chainlink VRF Coordinator address: 0x8C7382F9D8f56b33781fE506E897a4F1e2d17255\r\n     * LINK token address:                0x326C977E6efc84E512bB9C30f76E30c160eD06FB\r\n     * Key Hash: 0x6e75b569a01ef56d18cab6a8e71e6600d6ce853834d4a5748b720d06f878b3a4\r\n     */\r\n    constructor() \r\n        VRFConsumerBase(\r\n            0x8C7382F9D8f56b33781fE506E897a4F1e2d17255, // VRF Coordinator\r\n            0x326C977E6efc84E512bB9C30f76E30c160eD06FB  // LINK Token\r\n        ) public\r\n    {\r\n        keyHash = 0x6e75b569a01ef56d18cab6a8e71e6600d6ce853834d4a5748b720d06f878b3a4;\r\n        fee = 0.1 * 10 ** 18; // 0.1 LINK\r\n    }\r\n\r\n    \r\n    /** \r\n     * Requests randomness from a user-provided seed\r\n     ************************************************************************************\r\n     *                                    STOP!                                         * \r\n     *         THIS FUNCTION WILL FAIL IF THIS CONTRACT DOES NOT OWN LINK               *\r\n     *         ----------------------------------------------------------               *\r\n     *         Learn how to obtain testnet LINK and fund this contract:                 *\r\n     *         ------- https://docs.chain.link/docs/acquire-link --------               *\r\n     *         ---- https://docs.chain.link/docs/fund-your-contract -----               *\r\n     *                                                                                  *\r\n     ************************************************************************************/\r\n    //needs a numbered seedd and a string name\r\n    function getRandomNumber(\r\n        uint256 userProvidedSeed,\r\n        string memory title\r\n    ) public returns (bytes32 requestId) {\r\n        require(LINK.balanceOf(address(this)) >= fee, \"Not enough LINK - fill contract with faucet\");\r\n        requestToBodyTitle[requestId] = title;\r\n        return requestRandomness(keyHash, fee, userProvidedSeed);\r\n    }\r\n\r\n    /**\r\n     * Callback function used by VRF Coordinator\r\n     */\r\n    function fulfillRandomness(bytes32 requestId, uint256 randomNumber) internal override {\r\n        randomResult = randomNumber;\r\n        uint256 newId = bodies.length;\r\n        uint256 strength = (randomNumber % 100);\r\n        uint256 dexterity = ((randomNumber % 10000) / 100 );\r\n        uint256 constitution = ((randomNumber % 1000000) / 10000 );\r\n        uint256 intelligence = ((randomNumber % 100000000) / 1000000 );\r\n        uint256 wisdom = ((randomNumber % 10000000000) / 100000000 );\r\n        uint256 charisma = ((randomNumber % 1000000000000) / 10000000000);\r\n        uint256 experience = 0;\r\n\r\n        bodies.push(\r\n            Body(\r\n                strength,\r\n                dexterity,\r\n                constitution,\r\n                intelligence,\r\n                wisdom,\r\n                charisma,\r\n                experience,\r\n                requestToBodyTitle[requestId]\r\n            )\r\n        );\r\n    }\r\n    \r\n    function getCharacterStats(uint256 tokenId)\r\n        public\r\n        view\r\n        returns (\r\n            uint256,\r\n            uint256,\r\n            uint256,\r\n            uint256,\r\n            uint256,\r\n            uint256,\r\n            uint256\r\n        )\r\n    {\r\n        return (\r\n            bodies[tokenId].strength,\r\n            bodies[tokenId].dexterity,\r\n            bodies[tokenId].constitution,\r\n            bodies[tokenId].intelligence,\r\n            bodies[tokenId].wisdom,\r\n            bodies[tokenId].charisma,\r\n            bodies[tokenId].experience\r\n        );\r\n    }\r\n\r\n    /**\r\n     * Withdraw LINK from this contract\r\n     * \r\n     * DO NOT USE THIS IN PRODUCTION AS IT CAN BE CALLED BY ANY ADDRESS.\r\n     * THIS IS PURELY FOR EXAMPLE PURPOSES.\r\n     */\r\n    function withdrawLink() external {\r\n        require(LINK.transfer(msg.sender, LINK.balanceOf(address(this))), \"Unable to transfer\");\r\n    }\r\n}",
  "sourcePath": "C:/Users/tippi/Dropbox/My PC (LAPTOP-7Q52KVFF)/Documents/GitHub/0xHack/dappu/decentragram/src/contracts/NFBody.sol",
  "compiler": {
    "name": "solc",
    "version": "0.6.6+commit.6c089d02.Emscripten.clang"
  },
  "schemaVersion": "3.3.4",
  "updatedAt": "2021-05-31T04:06:40.340Z",
  "devdoc": {
    "methods": {}
  },
  "userdoc": {
    "methods": {
      "constructor": "Constructor inherits VRFConsumerBase      * Network: Polygon Mumbai Chainlink VRF Coordinator address: 0x8C7382F9D8f56b33781fE506E897a4F1e2d17255 LINK token address:                0x326C977E6efc84E512bB9C30f76E30c160eD06FB Key Hash: 0x6e75b569a01ef56d18cab6a8e71e6600d6ce853834d4a5748b720d06f878b3a4",
      "getRandomNumber(uint256,string)": {
        "notice": "Requests randomness from a user-provided seed************************************************************************************                                   STOP!                                         *         THIS FUNCTION WILL FAIL IF THIS CONTRACT DOES NOT OWN LINK               *        ----------------------------------------------------------               *        Learn how to obtain testnet LINK and fund this contract:                 *        ------- https://docs.chain.link/docs/acquire-link --------               *        ---- https://docs.chain.link/docs/fund-your-contract -----               *                                                                                 ************************************************************************************"
      },
      "withdrawLink()": {
        "notice": "Withdraw LINK from this contract \r DO NOT USE THIS IN PRODUCTION AS IT CAN BE CALLED BY ANY ADDRESS. THIS IS PURELY FOR EXAMPLE PURPOSES."
      }
    }
  }
}